{
  "_format": "hh-sol-artifact-1",
  "contractName": "Tracking",
  "sourceName": "contracts/Supplychain.sol",
  "abi": [
    {
      "inputs": [
        {
          "internalType": "string",
          "name": "_name",
          "type": "string"
        },
        {
          "internalType": "string",
          "name": "_description",
          "type": "string"
        }
      ],
      "name": "addProduct",
      "outputs": [],
      "stateMutability": "nonpayable",
      "type": "function"
    },
    {
      "inputs": [
        {
          "internalType": "uint256",
          "name": "",
          "type": "uint256"
        }
      ],
      "name": "products",
      "outputs": [
        {
          "internalType": "uint256",
          "name": "uniqueID",
          "type": "uint256"
        },
        {
          "internalType": "string",
          "name": "name",
          "type": "string"
        },
        {
          "internalType": "string",
          "name": "description",
          "type": "string"
        },
        {
          "internalType": "address",
          "name": "currentOwner",
          "type": "address"
        },
        {
          "internalType": "enum Tracking.Role",
          "name": "currentRole",
          "type": "uint8"
        }
      ],
      "stateMutability": "view",
      "type": "function"
    },
    {
      "inputs": [
        {
          "internalType": "address",
          "name": "",
          "type": "address"
        }
      ],
      "name": "roles",
      "outputs": [
        {
          "internalType": "enum Tracking.Role",
          "name": "",
          "type": "uint8"
        }
      ],
      "stateMutability": "view",
      "type": "function"
    },
    {
      "inputs": [
        {
          "internalType": "uint256",
          "name": "_id",
          "type": "uint256"
        },
        {
          "internalType": "address",
          "name": "_newOwner",
          "type": "address"
        },
        {
          "internalType": "string",
          "name": "_locations",
          "type": "string"
        }
      ],
      "name": "transferProduct",
      "outputs": [],
      "stateMutability": "nonpayable",
      "type": "function"
    },
    {
      "inputs": [
        {
          "internalType": "uint256",
          "name": "_id",
          "type": "uint256"
        }
      ],
      "name": "verifyProduct",
      "outputs": [
        {
          "internalType": "string",
          "name": "name",
          "type": "string"
        },
        {
          "internalType": "string",
          "name": "description",
          "type": "string"
        },
        {
          "internalType": "address",
          "name": "currentOwner",
          "type": "address"
        },
        {
          "internalType": "enum Tracking.Role",
          "name": "currentRole",
          "type": "uint8"
        },
        {
          "internalType": "string[]",
          "name": "locations",
          "type": "string[]"
        }
      ],
      "stateMutability": "view",
      "type": "function"
    }
  ],
  "bytecode": "0x6080604052600160025534801561001557600080fd5b506116af806100256000396000f3fe608060405234801561001057600080fd5b50600436106100575760003560e01c8063293bb2c11461005c578063524e8462146100785780637acc0b20146100ac57806399374642146100e0578063ca2efb5514610110575b600080fd5b61007660048036038101906100719190610cd5565b61012c565b005b610092600480360381019061008d9190610d44565b610228565b6040516100a3959493929190610f82565b60405180910390f35b6100c660048036038101906100c19190610d44565b610489565b6040516100d7959493929190610ff9565b60405180910390f35b6100fa60048036038101906100f5919061105a565b6105fc565b6040516101079190611087565b60405180910390f35b61012a600480360381019061012591906110a2565b61061c565b005b6101368382610874565b60006001600085815260200190815260200160002090503373ffffffffffffffffffffffffffffffffffffffff168160030160009054906101000a900473ffffffffffffffffffffffffffffffffffffffff1673ffffffffffffffffffffffffffffffffffffffff16146101df576040517f08c379a00000000000000000000000000000000000000000000000000000000081526004016101d690611166565b60405180910390fd5b828160030160006101000a81548173ffffffffffffffffffffffffffffffffffffffff021916908373ffffffffffffffffffffffffffffffffffffffff16021790555050505050565b6060806000806060600060016000888152602001908152602001600020905080600101816002018260030160009054906101000a900473ffffffffffffffffffffffffffffffffffffffff168360030160149054906101000a900460ff1684600401848054610296906111b5565b80601f01602080910402602001604051908101604052809291908181526020018280546102c2906111b5565b801561030f5780601f106102e45761010080835404028352916020019161030f565b820191906000526020600020905b8154815290600101906020018083116102f257829003601f168201915b50505050509450838054610322906111b5565b80601f016020809104026020016040519081016040528092919081815260200182805461034e906111b5565b801561039b5780601f106103705761010080835404028352916020019161039b565b820191906000526020600020905b81548152906001019060200180831161037e57829003601f168201915b5050505050935080805480602002602001604051908101604052809291908181526020016000905b8282101561046f5783829060005260206000200180546103e2906111b5565b80601f016020809104026020016040519081016040528092919081815260200182805461040e906111b5565b801561045b5780601f106104305761010080835404028352916020019161045b565b820191906000526020600020905b81548152906001019060200180831161043e57829003601f168201915b5050505050815260200190600101906103c3565b505050509050955095509550955095505091939590929450565b60016020528060005260406000206000915090508060000154908060010180546104b2906111b5565b80601f01602080910402602001604051908101604052809291908181526020018280546104de906111b5565b801561052b5780601f106105005761010080835404028352916020019161052b565b820191906000526020600020905b81548152906001019060200180831161050e57829003601f168201915b505050505090806002018054610540906111b5565b80601f016020809104026020016040519081016040528092919081815260200182805461056c906111b5565b80156105b95780601f1061058e576101008083540402835291602001916105b9565b820191906000526020600020905b81548152906001019060200180831161059c57829003601f168201915b5050505050908060030160009054906101000a900473ffffffffffffffffffffffffffffffffffffffff16908060030160149054906101000a900460ff16905085565b60006020528060005260406000206000915054906101000a900460ff1681565b600080600381111561063157610630610dff565b5b6000803373ffffffffffffffffffffffffffffffffffffffff1673ffffffffffffffffffffffffffffffffffffffff16815260200190815260200160002060009054906101000a900460ff16600381111561068f5761068e610dff565b5b146106cf576040517f08c379a00000000000000000000000000000000000000000000000000000000081526004016106c690611232565b60405180910390fd5b6040518060c0016040528060025481526020018481526020018381526020013373ffffffffffffffffffffffffffffffffffffffff1681526020016000600381111561071e5761071d610dff565b5b8152602001600067ffffffffffffffff81111561073e5761073d610baa565b5b60405190808252806020026020018201604052801561077157816020015b606081526020019060019003908161075c5790505b508152506001600060025481526020019081526020016000206000820151816000015560208201518160010190816107a991906113fe565b5060408201518160020190816107bf91906113fe565b5060608201518160030160006101000a81548173ffffffffffffffffffffffffffffffffffffffff021916908373ffffffffffffffffffffffffffffffffffffffff16021790555060808201518160030160146101000a81548160ff0219169083600381111561083257610831610dff565b5b021790555060a0820151816004019080519060200190610853929190610a0d565b509050506002600081548092919061086a906114ff565b9190505550505050565b600060016000848152602001908152602001600020905060008160000154036108d2576040517f08c379a00000000000000000000000000000000000000000000000000000000081526004016108c990611593565b60405180910390fd5b3373ffffffffffffffffffffffffffffffffffffffff168160030160009054906101000a900473ffffffffffffffffffffffffffffffffffffffff1673ffffffffffffffffffffffffffffffffffffffff1614610964576040517f08c379a000000000000000000000000000000000000000000000000000000000815260040161095b90611625565b60405180910390fd5b60018160030160149054906101000a900460ff16600381111561098a57610989610dff565b5b6109949190611645565b60038111156109a6576109a5610dff565b5b8160030160146101000a81548160ff021916908360038111156109cc576109cb610dff565b5b02179055508060040182908060018154018082558091505060019003906000526020600020016000909190919091509081610a0791906113fe565b50505050565b828054828255906000526020600020908101928215610a55579160200282015b82811115610a54578251829081610a4491906113fe565b5091602001919060010190610a2d565b5b509050610a629190610a66565b5090565b5b80821115610a865760008181610a7d9190610a8a565b50600101610a67565b5090565b508054610a96906111b5565b6000825580601f10610aa85750610ac7565b601f016020900490600052602060002090810190610ac69190610aca565b5b50565b5b80821115610ae3576000816000905550600101610acb565b5090565b6000604051905090565b600080fd5b600080fd5b6000819050919050565b610b0e81610afb565b8114610b1957600080fd5b50565b600081359050610b2b81610b05565b92915050565b600073ffffffffffffffffffffffffffffffffffffffff82169050919050565b6000610b5c82610b31565b9050919050565b610b6c81610b51565b8114610b7757600080fd5b50565b600081359050610b8981610b63565b92915050565b600080fd5b600080fd5b6000601f19601f8301169050919050565b7f4e487b7100000000000000000000000000000000000000000000000000000000600052604160045260246000fd5b610be282610b99565b810181811067ffffffffffffffff82111715610c0157610c00610baa565b5b80604052505050565b6000610c14610ae7565b9050610c208282610bd9565b919050565b600067ffffffffffffffff821115610c4057610c3f610baa565b5b610c4982610b99565b9050602081019050919050565b82818337600083830152505050565b6000610c78610c7384610c25565b610c0a565b905082815260208101848484011115610c9457610c93610b94565b5b610c9f848285610c56565b509392505050565b600082601f830112610cbc57610cbb610b8f565b5b8135610ccc848260208601610c65565b91505092915050565b600080600060608486031215610cee57610ced610af1565b5b6000610cfc86828701610b1c565b9350506020610d0d86828701610b7a565b925050604084013567ffffffffffffffff811115610d2e57610d2d610af6565b5b610d3a86828701610ca7565b9150509250925092565b600060208284031215610d5a57610d59610af1565b5b6000610d6884828501610b1c565b91505092915050565b600081519050919050565b600082825260208201905092915050565b60005b83811015610dab578082015181840152602081019050610d90565b60008484015250505050565b6000610dc282610d71565b610dcc8185610d7c565b9350610ddc818560208601610d8d565b610de581610b99565b840191505092915050565b610df981610b51565b82525050565b7f4e487b7100000000000000000000000000000000000000000000000000000000600052602160045260246000fd5b60048110610e3f57610e3e610dff565b5b50565b6000819050610e5082610e2e565b919050565b6000610e6082610e42565b9050919050565b610e7081610e55565b82525050565b600081519050919050565b600082825260208201905092915050565b6000819050602082019050919050565b600082825260208201905092915050565b6000610ebe82610d71565b610ec88185610ea2565b9350610ed8818560208601610d8d565b610ee181610b99565b840191505092915050565b6000610ef88383610eb3565b905092915050565b6000602082019050919050565b6000610f1882610e76565b610f228185610e81565b935083602082028501610f3485610e92565b8060005b85811015610f705784840389528151610f518582610eec565b9450610f5c83610f00565b925060208a01995050600181019050610f38565b50829750879550505050505092915050565b600060a0820190508181036000830152610f9c8188610db7565b90508181036020830152610fb08187610db7565b9050610fbf6040830186610df0565b610fcc6060830185610e67565b8181036080830152610fde8184610f0d565b90509695505050505050565b610ff381610afb565b82525050565b600060a08201905061100e6000830188610fea565b81810360208301526110208187610db7565b905081810360408301526110348186610db7565b90506110436060830185610df0565b6110506080830184610e67565b9695505050505050565b6000602082840312156110705761106f610af1565b5b600061107e84828501610b7a565b91505092915050565b600060208201905061109c6000830184610e67565b92915050565b600080604083850312156110b9576110b8610af1565b5b600083013567ffffffffffffffff8111156110d7576110d6610af6565b5b6110e385828601610ca7565b925050602083013567ffffffffffffffff81111561110457611103610af6565b5b61111085828601610ca7565b9150509250929050565b7f206f6e6c79206f776e65722063616e2065786563757465000000000000000000600082015250565b6000611150601783610d7c565b915061115b8261111a565b602082019050919050565b6000602082019050818103600083015261117f81611143565b9050919050565b7f4e487b7100000000000000000000000000000000000000000000000000000000600052602260045260246000fd5b600060028204905060018216806111cd57607f821691505b6020821081036111e0576111df611186565b5b50919050565b7f554e54484f52495a454420524f4c450000000000000000000000000000000000600082015250565b600061121c600f83610d7c565b9150611227826111e6565b602082019050919050565b6000602082019050818103600083015261124b8161120f565b9050919050565b60008190508160005260206000209050919050565b60006020601f8301049050919050565b600082821b905092915050565b6000600883026112b47fffffffffffffffffffffffffffffffffffffffffffffffffffffffffffffffff82611277565b6112be8683611277565b95508019841693508086168417925050509392505050565b6000819050919050565b60006112fb6112f66112f184610afb565b6112d6565b610afb565b9050919050565b6000819050919050565b611315836112e0565b61132961132182611302565b848454611284565b825550505050565b600090565b61133e611331565b61134981848461130c565b505050565b5b8181101561136d57611362600082611336565b60018101905061134f565b5050565b601f8211156113b25761138381611252565b61138c84611267565b8101602085101561139b578190505b6113af6113a785611267565b83018261134e565b50505b505050565b600082821c905092915050565b60006113d5600019846008026113b7565b1980831691505092915050565b60006113ee83836113c4565b9150826002028217905092915050565b61140782610d71565b67ffffffffffffffff8111156114205761141f610baa565b5b61142a82546111b5565b611435828285611371565b600060209050601f8311600181146114685760008415611456578287015190505b61146085826113e2565b8655506114c8565b601f19841661147686611252565b60005b8281101561149e57848901518255600182019150602085019450602081019050611479565b868310156114bb57848901516114b7601f8916826113c4565b8355505b6001600288020188555050505b505050505050565b7f4e487b7100000000000000000000000000000000000000000000000000000000600052601160045260246000fd5b600061150a82610afb565b91507fffffffffffffffffffffffffffffffffffffffffffffffffffffffffffffffff820361153c5761153b6114d0565b5b600182019050919050565b7f2000000000000000000000000000000000000000000000000000000000000000600082015250565b600061157d600183610d7c565b915061158882611547565b602082019050919050565b600060208201905081810360008301526115ac81611570565b9050919050565b7f4f6e6c79207468652063757272656e74206f776e65722063616e20757064617460008201527f6500000000000000000000000000000000000000000000000000000000000000602082015250565b600061160f602183610d7c565b915061161a826115b3565b604082019050919050565b6000602082019050818103600083015261163e81611602565b9050919050565b600061165082610afb565b915061165b83610afb565b9250828201905080821115611673576116726114d0565b5b9291505056fea26469706673582212205e635cbda99d696ded5cda3d89663d2a17d2aee4ab407395c0fa2ad2a88d173c64736f6c63430008180033",
  "linkReferences": {},
  "deployedLinkReferences": {}
}